:100000000C947C010C94AD010C94AD010C94AD01E9
:100010000C94AD010C94AD010C94AD010C94AD01A8
:100020000C94AD010C94AD010C94AD010C94AD0198
:100030000C94AD010C94AD010C94AD010C94AD0188
:100040000C94AD010C94AD010C94AD010C94AD0178
:100050000C94AD010C94AD010C94AD010C947D0594
:100060000C94AD010C94AD010C94AD010C94AD0158
:100070000C94AD010C94AD010C94AD010C94AD0148
:100080000C94AD010C94AD010C94AD010C94AD0138
:100090000C94AD010C94AD010C94AD010C94AD0128
:1000A0000C94AD010C94AD010C94C7050C94AD01FA
:1000B0000C94AD010C94AD010C94AD010C94AD0108
:1000C0000C94AD010C94AD010C94AD010C94AD01F8
:1000D0000C94AD010C94AD010C94AD010C94AD01E8
:1000E0000C94AD010C9435020C9444020C943D0226
:1000F0000C944A020C94FE020C9474020C941E029E
:100100000C9462020C945C020C9441020C946E09F3
:100110000C9470020C9423020C9454020C944E0222
:100120000C9458020C9466020C94A3040C94FF02E5
:100130000C946A020C94D1020C94390200000A0B50
:1001400002090C0D0E080703040100000000000066
:10015000000000000000000000000000000000009F
:10016000000000000000000012111000000000005C
:10017000000000000000000000000000000000007F
:100180000000303000303100303200303300303485
:10019000003035003036003037003038003039005C
:1001A000313000313100313200313300313400312F
:1001B0003500313600313700313800313900323006
:1001C0000032310032320032330032340032350036
:1001D00032360032370032380032390033300033E3
:1001E00031003332003333003334003335003336DB
:1001F00000333700333800333900343000343100F5
:1002000034320034330034340034350034360034B2
:10021000370034380034390035300035310035329C
:1002200000353300353400353500353600353700BC
:1002300035380035390000002200250028002B0049
:100240002E003100340002010000050108010B01FD
:1002500000002100240027002A002D003000330078
:1002600001010000040107010A0105050505070554
:1002700008080808020202020A0A08080404040422
:10028000010101010101010103030303030303034E
:10029000040707070C0C0C0C0C0C0C0C02020202DD
:1002A00006060606060606060B0B0B0B0B0B0B0BC6
:1002B0000102102020080810204010204080020178
:1002C000020108040201010204081020408080405D
:1002D000201008040201800402018040201008045C
:1002E00002010804020101020408102040800102FA
:1002F0000408102040806E0911241FBECFEFD1E208
:10030000DEBFCDBF00E00CBF12E0A0E0B2E0E4E849
:10031000F3E100E00BBF02C007900D92AE31B107D0
:10032000D9F723E0AEE1B2E001C01D92A130B207DF
:10033000E1F711E0CCE7D1E000E006C02197010928
:10034000802FFE010E94B809CB37D10780E0080753
:10035000A9F70E943F060C94C0090C94000090E09D
:10036000FC01E055FD4F249186599D4FFC0184917D
:10037000882399F090E0880F991FFC01E05BFD4F06
:10038000A591B491FC01EA5CFD4F859194918FB7E2
:10039000F894EC91E22BEC938FBF089580910202C8
:1003A000082E000C990BC0978A309105A0F420917B
:1003B0000302022E000C330B205331092A30310581
:1003C00060F46AE0689FA001699F500D1124CA0182
:1003D000820F931F08958FEF9FEF0895282F30E02D
:1003E000F901E45CFE4F9491F901E055FD4F449111
:1003F00026593D4FF9012491222309F435C0992350
:1004000011F191509231F8F4E92FF0E08827E45F80
:10041000FD4F8F4F0C94B8093D0241021E02350278
:100420003902230244024A024E02540258025C027C
:100430006202660223026A027002740280918000E6
:100440008F7780938000E22FF0E0EE0FFF1FEA5CD1
:10045000FD4FA591B4918FB7F894EC91611148C00C
:1004600040954E234C938FBF0895809180008F7DDF
:10047000E8CF80918000877FE4CF84B58F7784BDFB
:10048000E2CF84B58F7DFBCF8091B0008F778093D2
:10049000B000D9CF8091B0008F7DF9CF80919000CE
:1004A0008F7780939000CFCF809190008F7DF9CF90
:1004B00080919000877FF5CF8091A0008F77809307
:1004C000A000C1CF8091A0008F7DF9CF8091A000C6
:1004D000877FF5CF809120018F7780932001B3CF64
:1004E000809120018F7DF9CF80912001877FF5CF0A
:1004F0004E2BB8CF3FB7F89480912F0290913002E5
:10050000A0913102B091320226B5A89B05C02F3FC1
:1005100019F00196A11DB11D3FBFBA2FA92F982F29
:100520008827BC01CD01620F711D811D911D42E024
:10053000660F771F881F991F4A95D1F708958F92EC
:100540009F92AF92BF92CF92DF92EF92FF924B01B8
:100550005C010E947A026B017C010E947A026C1994
:100560007D098E099F09683E734081059105A8F3B6
:1005700021E0821A9108A108B10888EEC80E83E034
:10058000D81EE11CF11C81149104A104B10429F7C7
:10059000FF90EF90DF90CF90BF90AF909F908F90A3
:1005A0000895AF92BF92CF92DF92EF92FF920F9396
:1005B0001F93CF93DF936C017B018B01040F151FF9
:1005C000EB015E01AE18BF08C017D10759F0699161
:1005D000D601ED91FC910190F081E02DC6011995B5
:1005E000892B79F7C501DF91CF911F910F91FF9072
:1005F000EF90DF90CF90BF90AF900895089590E076
:1006000080E008958F929F92AF92BF920F931F93B5
:10061000CF93DF93CDB7DEB7A1970FB6F894DEBFC7
:100620000FBECDBF19A2423008F44AE08E010F5D23
:100630001F4F842E912CB12CA12CA50194010E9456
:100640009609E62FB901CA01EA3044F5E05DD80108
:10065000EE938D01232B242B252B79F790E080E05E
:10066000109769F0FD0101900020E9F73197AF0183
:100670004A1B5B0BBD0189EE92E00E94D102A1965C
:100680000FB6F894DEBF0FBECDBFDF91CF911F91A3
:100690000F91BF90AF909F908F900895E95CD7CF56
:1006A000CF93DF93EC0160E08E810E94EE0161E068
:1006B0008E810E94EE0160E08E810E94EE018BE847
:1006C00091E00197F1F7DF91CF910895CF92DF92FA
:1006D000EF92FF920F931F93CF93DF936C017C01F6
:1006E00087E0E80EF11CD0E0C0E0062F10E0B80172
:1006F0000C2E02C0759567950A94E2F76170F701B8
:1007000081917F010E94EE012196C430D10579F7D5
:10071000C601DF91CF911F910F91FF90EF90DF9075
:10072000CF900C945003CF92DF92EF92FF920F93F1
:100730001F93CF93DF93EC01F62E642F8C810E94E0
:10074000EE018D818F3F19F060E00E94EE010F2DC8
:1007500010E08F8584FF25C06E0187E0C80ED11C94
:10076000F12CE12CB8010E2C02C0759567950A9406
:10077000E2F76170F60181916F010E94EE01FFEFD7
:10078000EF1AFF0A88E0E816F10461F7CE01DF9165
:10079000CF911F910F91FF90EF90DF90CF900C942D
:1007A0005003B80184E0759567958A95E1F7CE010D
:1007B0000E9466036F2DCE01DF91CF911F910F91A3
:1007C000FF90EF90DF90CF900C94660340E0682F8D
:1007D00089EE92E00C94930381E00E94E6038BE3A0
:1007E0009FE10197F1F70895CF93DF93823029F4C9
:1007F0009091F80298609093F8028093FC02109216
:10080000FD0280E48093FE0280E18093FF0280E598
:10081000809300038091ED020E94AF018091EE026F
:100820008F3F11F00E94AF018091EF020E94AF0153
:10083000C9EED2E09E01295E32408091F80284FD2B
:100840000AC084E090E02196281739073CF48E8195
:100850000E94AF01EFCF88E090E0F5CF8BE39DE001
:100860000197F1F760E08091ED020E94EE0160E0F7
:100870008091EF020E94EE018091EE028F3F19F00D
:1008800060E00E94EE018091F80284FD34C063E0D4
:1008900089EE92E00E946603CBE4D6E4CE01019794
:1008A000F1F763E089EE92E00E9466032197F1F789
:1008B00063E089EE92E00E94660383E592E001978F
:1008C000F1F762E089EE92E00E9466038091F802FF
:1008D00080620E94E60384E08093F9028CE00E942B
:1008E000E6030E94EC0382E08093FA0286E0DF9147
:1008F000CF910C94E60380620E94E6038BE496E4B9
:100900000197F1F78091F80280620E94E60383E587
:1009100092E00197F1F78091F80280620E94E6036D
:10092000D5CF643008F063E09091FC02691710F0B5
:100930006FEF690FE62FF0E0E751FD4F9489890FC3
:1009400080680C94E60341E00E94930381E090E00C
:100950000895CF92DF92EF92FF926B017C0141E00C
:100960006DE289EE92E00E94930366277727CB0120
:100970006C197D098E099F094AE00E9402030196C5
:10098000FF90EF90DF90CF900895BC01990F880BF6
:10099000990B97FD0C94A9044AE00C940203CF93A1
:1009A000DF93EC01FC01649141E089EE92E00E944A
:1009B0009303FE013196649141E089EE92E0DF916C
:1009C000CF910C9493037F928F929F92AF92BF929C
:1009D000CF92DF92EF92FF920F931F93CF93DF930B
:1009E0008C010E94EC038091E7029091E8021816B6
:1009F00019067CF461E08DE00E9491046DE489EEBB
:100A000092E00E94A3048091E7029091E8020E9484
:100A1000C504E801CC0FDD1FC00FD11FCD5CDD4F39
:100A20004801012E000CAA08BB088FEF881A980A0B
:100A3000A80AB80A780168018FEFC81AD80A93E0AB
:100A4000792ECE14DF040CF44AC08091E702909115
:100A5000E802E816F9060CF042C06E2D601B81E03A
:100A60000E9491048FEFE81AF80AB7FE32C0C50160
:100A7000B4010E94A9046DE289EE92E00E94A304F1
:100A80008A81879DC00111248E579E4F0E94CF04FA
:100A90006AE389EE92E00E94A3048981879DC001E8
:100AA00011248E579E4F0E94CF046AE389EE92E094
:100AB0000E94A3048881879DC00111248E579E4FF8
:100AC0000E94CF0423968FEF881A980AA80AB80AC2
:100AD000B8CF4AE0C501B4010E940203CCCFDF9138
:100AE000CF911F910F91FF90EF90DF90CF90BF902B
:100AF000AF909F908F907F9008951F920F920FB6A6
:100B00000F9211242F933F938F939F93AF93BF9393
:100B100080912B0290912C02A0912D02B0912E0277
:100B200030912A0223E0230F2D3758F50196A11D9D
:100B3000B11D20932A0280932B0290932C02A09344
:100B40002D02B0932E0280912F0290913002A0913D
:100B50003102B09132020196A11DB11D80932F0286
:100B600090933002A0933102B0933202BF91AF91C3
:100B70009F918F913F912F910F900FBE0F901F90DB
:100B8000189526E8230F0296A11DB11DD2CF1F9202
:100B90000F920FB60F9211240BB60F922F933F9323
:100BA0004F935F936F937F938F939F93AF93BF9375
:100BB000CF93EF93FF9380912602882309F440C0DE
:100BC000809123028F5F809323028C3379F490917C
:100BD0002402809125021092230221E020931E021C
:100BE0009F5F9C3309F440C09093240260E083E04F
:100BF0000E94910480912502C3E08C9FC0011124C2
:100C00008E579E4F0E94CF046AE389EE92E00E94C5
:100C1000A304809124028C9FC00111248E579E4F03
:100C20000E94CF046AE389EE92E00E94A3048091BF
:100C300023028C9FC00111248E579E4F0E94CF0427
:100C4000FF91EF91CF91BF91AF919F918F917F9144
:100C50006F915F914F913F912F910F900BBE0F902D
:100C60000FBE0F901F901895109224028F5F88314D
:100C700019F080932502BACF10922502B7CFCF93F7
:100C8000DF9300D000D0CDB7DEB7789484B5826012
:100C900084BD84B5816084BD85B5826085BD85B520
:100CA000816085BD80916E00816080936E0010929E
:100CB0008100809181008260809381008091810019
:100CC00081608093810080918000816080938000AA
:100CD0008091B10084608093B1008091B000816008
:100CE0008093B00080919100826080939100809108
:100CF0009100816080939100809190008160809349
:100D000090008091A10082608093A1008091A10059
:100D100081608093A1008091A00081608093A000F9
:100D20008091210182608093210180912101816065
:100D30008093210180912001816080932001809126
:100D40007A00846080937A0080917A008260809338
:100D50007A0080917A00816080937A0080917A0095
:100D6000806880937A001092C100F8941092A000DD
:100D70008DE08093A10082E08093720088E09DE383
:100D80009093A9008093A8008FE087B980EF88B97D
:100D900082E00E94F403789485E10E94AF0160E054
:100DA00085E10E94EE01882483946E0186E0C80EDE
:100DB000D11CA3E3AA2EA2E0BA2EB0E0EB2EB0E045
:100DC000FB2E9924939455E4352E64E4462E73E467
:100DD000572EE2E47E2EF1E46F2E1091010286B1CF
:100DE000113009F0D3C0803FB9F162E370E080E0D8
:100DF00090E00E949F021092010210930002EEEF19
:100E0000E8B9000098B186B1981317C08DEF88B982
:100E1000000098B186B1981310C08BEF88B900001C
:100E200098B186B1981309C087EF88B9000098B1CE
:100E300086B1981302C010920002809100028130A6
:100E400049F486B18E3E09F04EC081E380932802BA
:100E50009092290280EF88B980912902882309F4B1
:100E6000EBC0109229021091280261E085E10E94F6
:100E7000EE0164E670E080E090E00E949F0260E096
:100E800085E10E94EE01133409F4AEC00CF08AC073
:100E9000113409F4DFC1123409F402C2809127022F
:100EA000882309F4C9C080912102909122028230E6
:100EB00091050CF0C1C08E5F9D4FFC0110830E9414
:100EC000EC0360E08EE00E9491040E94CE010E943B
:100ED000C5048091210290912202019690932202F2
:100EE00080932102A9C086B18E3D11F482E3AECF7A
:100EF00086B18E3B11F483E3A9CF86B18D3E11F408
:100F000084E3A4CF86B18D3D11F485E39FCF86B1F4
:100F10008D3B11F486E39ACF86B18B3E11F487E3C3
:100F200095CF86B18B3D11F488E390CF86B18B3B92
:100F300011F489E38BCF86B1873D11F480E386CF2E
:100F400086B18E3719F46092280282CF86B18D3730
:100F500019F4709228027CCF86B18B3719F4509225
:100F6000280276CF86B1873719F44092280270CFD5
:100F700086B1873B19F4309228026ACF86B1873E4A
:100F800009F066CFF6E4F093280262CF803F09F0C3
:100F900063CF68EC70E080E090E00E949F02909246
:100FA00001025ACF153409F462C08091270215342A
:100FB0006CF0163409F072CF8823F1F186EBF5015D
:100FC00011928A95E9F70E94EC0336C0811134C072
:100FD0008091260288258093260268EC70E080E0EC
:100FE00090E00E949F0228C01092260268EC70E0F8
:100FF00080E090E00E949F0210922302109224024F
:101000001092250260E083E00E94910482E891E062
:101010000E94CF046AE389EE92E00E94A30482E872
:1010200091E00E94CF046AE389EE92E00E94A3045B
:1010300082E891E00E94CF0480911E02882381F013
:1010400061E085E10E94EE016CE271E080E090E0F9
:101050000E949F0260E085E10E94EE0110921E0254
:10106000E114F10409F4B9CE0E940000ACCE8091E5
:1010700026028823E1F18091E7029091E8028C3307
:101080009105B4F42091250230912402FC01EE0F69
:10109000FF1FE80FF91FED5CFD4F409123024083D5
:1010A0003183228301969093E8028093E702C4CFB4
:1010B00061E08BE00E94910445E050E061E172E064
:1010C00089EE92E00E94D10260E273E080E090E05D
:1010D0000E949F0261E08BE00E94910445E050E095
:1010E00067E172E089EE92E00E94D102A5CF809183
:1010F0002702882309F4A0CF0E94CE018C01181684
:1011000019060CF07CC08091E7029091E8028017EC
:1011100091070CF474C00E94EC0360E081E00E942F
:101120009104C8010E94C5046DE289EE92E00E941C
:10113000A30401501109C801880F991F080F191F36
:101140000D5C1D4FF801828133E0232E829DC0018A
:1011500011248E579E4F0E94CF046AE389EE92E0DD
:101160000E94A304F8018181829DC00111248E5741
:101170009E4F0E94CF046AE389EE92E00E94A3048E
:10118000F8018081829DC00111248E579E4F0E94DC
:10119000CF0461E085E10E94EE0168EC70E080E040
:1011A00090E00E949F0260E085E10E94EE0164E60B
:1011B00070E080E090E00E949F0261E085E10E9483
:1011C000EE0168EC70E080E090E00E949F0260E039
:1011D00085E10E94EE0160E273E080E090E00E9411
:1011E0009F0290E080E00E94E3041092220210929D
:1011F00021028DE280930202809303021DCF0E94A0
:10120000EC0361E085E00E94910486E0E1E1F2E018
:10121000DE01119601900D928A95E1F78E010F5F24
:101220001F4FF80161918F0189EE92E00E94A304A3
:101230000C151D05B1F761E085E10E94EE0168EE35
:1012400073E080E090E00E949F0260E085E10E94F0
:10125000EE01C7CF1092260268EC70E080E090E0CB
:101260000E949F028091270288258093270288236D
:1012700029F090E080E00E94E304DECE0E94EC03BF
:101280001092200210921F0210922202109221024C
:101290008DE28093020280930302909226029DCEFB
:1012A00080912702882309F4C7CE80911F02909174
:1012B000200201969093200280931F022091E70262
:1012C0003091E8028217930721F4109220021092C5
:1012D0001F0280911F0290912002CDCFE9EEF2E033
:1012E0001382128289E092E09183808385E0848377
:1012F00086E0858387E0868386E1878387E1808730
:1013000088E1818789E182878AE183878BE184870D
:101310008CE185878DE1868780E1878781E00E9467
:10132000F4031092E8021092E7020895A1E21A2E47
:10133000AA1BBB1BFD010DC0AA1FBB1FEE1FFF1F79
:10134000A217B307E407F50720F0A21BB30BE40BC9
:10135000F50B661F771F881F991F1A9469F7609510
:101360007095809590959B01AC01BD01CF010895CA
:10137000EE0FFF1F881F8BBF0790F691E02D199489
:04138000F894FFCF0F
:1013840001012D2D0000000000A304D102FF02FE84
:0E139400024572726F7200202020202000009F
:00000001FF
