:100000000C9472000C9486000C9486000C9486006C
:100010000C9486000C9486000C9486000C94860048
:100020000C9486000C9486000C9486000C94860038
:100030000C9486000C9486000C9486000C94860028
:100040000C9486000C9486000C9486000C94860018
:100050000C9486000C9486000C9486000C94880006
:100060000C9486000C9486000C9486000C948600F8
:100070000C9486000C9486000C9486000C948600E8
:100080000C9486000C9486000C9486000C948600D8
:100090000C94D2000C9486000C9486000C9486007C
:1000A0000C9486000C9486000C9486000C948600B8
:1000B0000C9486000C9486000C9486000C948600A8
:1000C0000C9486000C9486000C9486000C94860098
:1000D0000C9486000C9486000C9486000C94860088
:1000E0000C94860011241FBECFEFD1E2DEBFCDBF3E
:1000F00000E00CBF22E0A0E0B2E001C01D92A930F8
:10010000B207E1F70E94E2000C9473010C94000026
:100110001F920F920FB60F9211242F933F938F933C
:100120009F93AF93BF938091050290910602A09197
:100130000702B09108023091040223E0230F2D370B
:1001400058F50196A11DB11D20930402809305026C
:1001500090930602A0930702B093080280910002D8
:1001600090910102A0910202B09103020196A11D9B
:10017000B11D8093000290930102A0930202B093FC
:100180000302BF91AF919F918F913F912F910F905B
:100190000FBE0F901F90189526E8230F0296A11D01
:1001A000B11DD2CF1F920F920FB60F9211248F93D1
:1001B0008091CE008093C6008F910F900FBE0F905C
:1001C0001F901895789484B5826084BD84B5816051
:1001D00084BD85B5826085BD85B5816085BD809112
:1001E0006E00816080936E0010928100809181008A
:1001F0008260809381008091810081608093810082
:10020000809180008160809380008091B100846043
:100210008093B1008091B00081608093B0008091A4
:100220009100826080939100809191008160809321
:100230009100809190008160809390008091A10056
:1002400082608093A1008091A10081608093A100D1
:100250008091A00081608093A00080912101826044
:1002600080932101809121018160809321018091FF
:10027000200181608093200180917A0084608093C6
:100280007A0080917A00826080937A0080917A006F
:10029000816080937A0080917A00806880937A00F0
:1002A0001092C10082E08AB99FE39093CC00109233
:1002B000CD008EE08093CA001092C80028E92093F8
:1002C000C9009093C4001092C5008093C2001092A0
:1002D000C00088E18093C100C0E0D0E02097F1F336
:0A02E0000E940000FBCFF894FFCF4E
:00000001FF
