:100000000C9434000C9451000C9451000C94510049
:100010000C9451000C9451000C9451000C9451001C
:100020000C9451000C9451000C9451000C9451000C
:100030000C9451000C9451000C9451000C945100FC
:100040000C948E000C9451000C9451000C94D80028
:100050000C9451000C9451000C9451000C945100DC
:100060000C9451000C94510011241FBECFEFD8E026
:10007000DEBFCDBF11E0A0E0B1E0ECEAF3E002C0EA
:1000800005900D92A232B107D9F721E0A2E2B1E0CA
:1000900001C01D92AE34B207E1F70E9412010C9428
:1000A000D4010C94000090914C01E92FF0E0E45D44
:1000B000FE4F80839F5F9F7190934C01E1ECF0E0D5
:1000C00080818062808308950F931F93CF93DF9385
:1000D0008C0110924D0110924C01ECE2F1E0119272
:1000E00021E0EC34F207D9F78FEF92E527E0815059
:1000F00090402040E1F700C000008DE20E945300D4
:10010000E801065F1F4F89910E9453000C171D07DD
:10011000D1F7DF91CF911F910F9108951F920F9208
:100120000FB60F9211242F933F938F939F93AF930A
:10013000BF938091280190912901A0912A01B0914B
:100140002B013091270123E0230F2D3758F501961D
:10015000A11DB11D209327018093280190932901AF
:10016000A0932A01B0932B01809123019091240147
:10017000A0912501B09126010196A11DB11D80938A
:10018000230190932401A0932501B0932601BF91F0
:10019000AF919F918F913F912F910F900FBE0F9034
:1001A0001F90189526E8230F0296A11DB11DD2CFEE
:1001B0001F920F920FB60F9211246F937F938F931C
:1001C0009F93EF93FF935A9AE0914D0181E08E0F38
:1001D00080934D01F0E0E45DFE4F80818093C60086
:1001E00080914D016FE10E94C80190934D01809173
:1001F0004C01981305C08091C1008F7D8093C10090
:100200008FE99FE00197F1F700C000005A98FF9135
:10021000EF919F918F917F916F910F900FBE0F90F3
:100220001F901895789484B5826084BD84B58160F0
:1002300084BD85B5826085BD85B5816085BD8091B1
:100240006E00816080936E00109281008091810029
:100250008260809381008091810081608093810021
:10026000809180008160809380008091B1008460E3
:100270008093B1008091B00081608093B000809144
:100280007A00846080937A0080917A008260809303
:100290007A0080917A00816080937A0080917A0060
:1002A000806880937A001092C10084E08AB98FE35D
:1002B0008093C4001092C5008EE08093C20088E154
:1002C0008093C10010E400ECC0E0D0E0FF24F39480
:1002D0008091220181114DC02FEF8DE399E42150CF
:1002E00080409040E1F700C0000086E191E00E946C
:1002F00064002FEF82E597E0215080409040E1F7C5
:1003000000C0000086E191E00E9464002FEF82E5CA
:1003100097E0215080409040E1F700C000008091BC
:100320000B01812780930B018BE091E00E94640018
:100330002FEF82E597E0215080409040E1F700C028
:1003400000008091010180278093010180E091E00D
:100350000E9464002FEF82E597E02150804090409A
:10036000E1F700C0000086E191E00E946400F09295
:1003700022012FEF81EE94E0215080409040E1F780
:1003800000C00000209709F4A3CF0E940000A0CF76
:10039000991B79E004C0991F961708F0961B881FD7
:0C03A0007A95C9F780950895F894FFCF76
:1003AC0032352E30372E323030350032352E303754
:1003BC002E323030350032352E30372E323030354B
:0203CC0000002F
:00000001FF
