:100000000C9434000C9451000C9451000C94510049
:100010000C9451000C9451000C9451000C9451001C
:100020000C9451000C9451000C9451000C9451000C
:100030000C9451000C9451000C9451000C945100FC
:100040000C94B6000C9451000C9451000C940001D7
:100050000C9451000C9451000C9451000C945100DC
:100060000C9451000C94510011241FBECFEFD8E026
:10007000DEBFCDBF11E0A0E0B1E0EAEEF3E002C0E8
:1000800005900D92A232B107D9F721E0A2E2B1E0CA
:1000900001C01D92A135B207E1F70E943A010C940C
:1000A000F3010C94000090914F01E92FF0E0E15D25
:1000B000FE4F80839F5F9F7190934F01E1ECF0E0D2
:1000C00080818062808308950F931F93CF93DF9385
:1000D000EC011092500110924F01EFE2F1E0119209
:1000E00021E0EF34F207D9F78FEF9FEF30E020E007
:1000F000422F477031F4FE01E30FF11D4081942738
:100100003F5FAC014427550F441F5527880F991FA7
:10011000452B21F041E2842740E194272F5F2035D1
:1001200039F790932C0180932D018FEF9FEC27E0FE
:10013000815090402040E1F700C000008DE20E9415
:1001400053008E01065F1F4F89910E9453000C17C8
:100150001D07D1F780912C010E94530080912D0141
:10016000DF91CF911F910F910C9453001F920F922A
:100170000FB60F9211242F933F938F939F93AF93BA
:10018000BF938091280190912901A0912A01B091FB
:100190002B013091270123E0230F2D3758F50196CD
:1001A000A11DB11D2093270180932801909329015F
:1001B000A0932A01B0932B018091230190912401F7
:1001C000A0912501B09126010196A11DB11D80933A
:1001D000230190932401A0932501B0932601BF91A0
:1001E000AF919F918F913F912F910F900FBE0F90E4
:1001F0001F90189526E8230F0296A11DB11DD2CF9E
:100200001F920F920FB60F9211246F937F938F93CB
:100210009F93EF93FF935A9AE091500181E08E0FE4
:1002200080935001F0E0E15DFE4F80818093C60035
:10023000809150016FE10E94E701909350018091FD
:100240004F01981305C08091C1008F7D8093C1003C
:100250008FE99FE00197F1F700C000005A98FF91E5
:10026000EF919F918F917F916F910F900FBE0F90A3
:100270001F901895789484B5826084BD84B58160A0
:1002800084BD85B5826085BD85B5816085BD809161
:100290006E00816080936E001092810080918100D9
:1002A00082608093810080918100816080938100D1
:1002B000809180008160809380008091B100846093
:1002C0008093B1008091B00081608093B0008091F4
:1002D0007A00846080937A0080917A0082608093B3
:1002E0007A0080917A00816080937A0080917A0010
:1002F000806880937A001092C10084E08AB98FE30D
:100300008093C4001092C5008EE08093C20088E103
:100310008093C10010E400ECC0E0D0E0FF24F3942F
:100320008091220181114DC02FEF8FE19EE4215079
:1003300080409040E1F700C0000086E191E00E941B
:1003400064002FEF8FEC97E0215080409040E1F760
:1003500000C0000086E191E00E9464002FEF8FEC66
:1003600097E0215080409040E1F700C0000080916C
:100370000B01812780930B018BE091E00E946400C8
:100380002FEF8FEC97E0215080409040E1F700C0C4
:1003900000008091010180278093010180E091E0BD
:1003A0000E9464002FEF8FEC97E021508040904036
:1003B000E1F700C0000086E191E00E946400F09245
:1003C0002201209709F4ACCF0E940000A9CF991B0D
:1003D00079E004C0991F961708F0961B881F7A953C
:0A03E000C9F780950895F894FFCF47
:1003EA0032352E30372E323030350032352E303716
:1003FA002E323030350032352E30372E323030350D
:02040A000000F0
:00000001FF
