:020000040000FA
:100000000C9434000C9451000C9451000C94510049
:100010000C9451000C9451000C9451000C9451001C
:100020000C9451000C9451000C9451000C9451000C
:100030000C9451000C9451000C9451000C945100FC
:100040000C94B6000C9451000C9451000C940001D7
:100050000C9451000C9451000C9451000C945100DC
:100060000C9451000C94510011241FBECFEFD8E026
:10007000DEBFCDBF11E0A0E0B1E0E8EDF3E002C0EB
:1000800005900D92A634B107D9F721E0A6E4B1E0BE
:1000900001C01D92A537B207E1F70E943A010C9406
:1000A000EA010C94000090917301E92FF0E0ED5A01
:1000B000FE4F80839F5F9F7190937301E1ECF0E0AE
:1000C00080818062808308950F931F93CF93DF9385
:1000D000EC011092740110927301E3E5F1E01192CA
:1000E00021E0E337F207D9F78FEF9FEF30E020E010
:1000F000422F477031F4FE01E30FF11D4081942738
:100100003F5FAC014427550F441F5527880F991FA7
:10011000452B21F041E2842740E194272F5F203BCB
:1001200039F790935001809351018FEF9FEC27E0B6
:10013000815090402040E1F700C0000088E10E941B
:1001400053008E010A5E1F4F89910E9453000C17C5
:100150001D07D1F7809150010E94530080915101F9
:10016000DF91CF911F910F910C9453001F920F922A
:100170000FB60F9211242F933F938F939F93AF93BA
:10018000BF9380914C0190914D01A0914E01B0918F
:100190004F0130914B0123E0230F2D3758F5019685
:1001A000A11DB11D20934B0180934C0190934D01F3
:1001B000A0934E01B0934F01809147019091480167
:1001C000A0914901B0914A010196A11DB11D8093F2
:1001D000470190934801A0934901B0934A01BF9110
:1001E000AF919F918F913F912F910F900FBE0F90E4
:1001F0001F90189526E8230F0296A11DB11DD2CF9E
:100200001F920F920FB60F9211246F937F938F93CB
:100210009F93EF93FF935A9AE091740181E08E0FC0
:1002200080937401F0E0ED5AFE4F80818093C60008
:10023000809174016FE10E94DE01909374018091BE
:100240007301981305C08091C1008F7D8093C10018
:100250008FE99FE00197F1F700C000005A98FF91E5
:10026000EF919F918F917F916F910F900FBE0F90A3
:100270001F901895789484B5826084BD84B58160A0
:1002800084BD85B5826085BD85B5816085BD809161
:100290006E00816080936E001092810080918100D9
:1002A00082608093810080918100816080938100D1
:1002B000809180008160809380008091B100846093
:1002C0008093B1008091B00081608093B0008091F4
:1002D0007A00846080937A0080917A0082608093B3
:1002E0007A0080917A00816080937A0080917A0010
:1002F000806880937A001092C10084E08AB98FE30D
:100300008093C4001092C5008EE08093C20088E103
:100310008093C10010E405E4C0E0D0E0FF24F39432
:1003200080914601811144C08EE291E00E946400F8
:100330002FEF8FEC97E0215080409040E1F700C014
:10034000000080912C01812780932C0187E191E0AE
:100350000E9464002FEF8FEC97E021508040904086
:10036000E1F700C000008EE291E00E9464002FEFF0
:100370008FEC97E0215080409040E1F700C00000F2
:100380008EE291E00E9464002FEF8FEC97E0215005
:1003900080409040E1F700C0000080910701802775
:1003A0008093070180E091E00E946400F092460192
:1003B000209709F4B5CF0E940000B2CF991B79E0D5
:1003C00004C0991F961708F0961B881F7A95C9F7E5
:1003D00080950895F894FFCF5061766C79756B2005
:1003E0004F6C65672049676F726F7679636800505C
:1003F00061766C79756B204F6C65672049676F7209
:100400006F76796368005061766C79756B204F6CFC
:0E04100065672049676F726F76796368000038
:107E0000112484B714BE81FFF0D085E080938100F7
:107E100082E08093C00088E18093C10086E0809377
:107E2000C20080E18093C4008EE0C9D0259A86E02C
:107E300020E33CEF91E0309385002093840096BBD3
:107E4000B09BFECF1D9AA8958150A9F7CC24DD24C4
:107E500088248394B5E0AB2EA1E19A2EF3E0BF2EE7
:107E6000A2D0813461F49FD0082FAFD0023811F036
:107E7000013811F484E001C083E08DD089C08234E0
:107E800011F484E103C0853419F485E0A6D080C0E4
:107E9000853579F488D0E82EFF2485D0082F10E0AE
:107EA000102F00270E291F29000F111F8ED06801E7
:107EB0006FC0863521F484E090D080E0DECF843638
:107EC00009F040C070D06FD0082F6DD080E0C81688
:107ED00080E7D80618F4F601B7BEE895C0E0D1E017
:107EE00062D089930C17E1F7F0E0CF16F0E7DF06D8
:107EF00018F0F601B7BEE89568D007B600FCFDCFD4
:107F0000A601A0E0B1E02C9130E011968C91119780
:107F100090E0982F8827822B932B1296FA010C0160
:107F200087BEE89511244E5F5F4FF1E0A038BF0790
:107F300051F7F601A7BEE89507B600FCFDCF97BE46
:107F4000E89526C08437B1F42ED02DD0F82E2BD052
:107F50003CD0F601EF2C8F010F5F1F4F84911BD097
:107F6000EA94F801C1F70894C11CD11CFA94CF0C13
:107F7000D11C0EC0853739F428D08EE10CD085E9AC
:107F80000AD08FE07ACF813511F488E018D01DD067
:107F900080E101D065CF982F8091C00085FFFCCF94
:107FA0009093C60008958091C00087FFFCCF809118
:107FB000C00084FD01C0A8958091C6000895E0E648
:107FC000F0E098E1908380830895EDDF803219F02E
:107FD00088E0F5DFFFCF84E1DECF1F93182FE3DFCA
:107FE0001150E9F7F2DF1F91089580E0E8DFEE27F6
:047FF000FF270994CA
:027FFE00040479
:00000001FF
