:100000000C9434000C9451000C9451000C94510049
:100010000C9451000C9451000C9451000C9451001C
:100020000C9451000C9451000C9451000C9451000C
:100030000C9451000C9451000C9451000C945100FC
:100040000C948E000C9451000C9451000C94D80028
:100050000C9451000C9451000C9451000C945100DC
:100060000C9451000C94510011241FBECFEFD8E026
:10007000DEBFCDBF11E0A0E0B1E0E8E8F3E002C0F0
:1000800005900D92A634B107D9F721E0A6E4B1E0BE
:1000900001C01D92A237B207E1F70E9412010C9431
:1000A000C2010C94000090917001E92FF0E0E05B38
:1000B000FE4F80839F5F9F7190937001E1ECF0E0B1
:1000C00080818062808308950F931F93CF93DF9385
:1000D0008C011092710110927001E0E5F1E0119233
:1000E00021E0E037F207D9F78FEF92E527E0815062
:1000F00090402040E1F700C0000088E10E945300DA
:10010000E8010A5E1F4F89910E9453000C171D07DA
:10011000D1F7DF91CF911F910F9108951F920F9208
:100120000FB60F9211242F933F938F939F93AF930A
:10013000BF9380914C0190914D01A0914E01B091DF
:100140004F0130914B0123E0230F2D3758F50196D5
:10015000A11DB11D20934B0180934C0190934D0143
:10016000A0934E01B0934F018091470190914801B7
:10017000A0914901B0914A010196A11DB11D809342
:10018000470190934801A0934901B0934A01BF9160
:10019000AF919F918F913F912F910F900FBE0F9034
:1001A0001F90189526E8230F0296A11DB11DD2CFEE
:1001B0001F920F920FB60F9211246F937F938F931C
:1001C0009F93EF93FF935A9AE091710181E08E0F14
:1001D00080937101F0E0E05BFE4F80818093C60068
:1001E000809171016FE10E94B6019093710180913D
:1001F0007001981305C08091C1008F7D8093C1006C
:100200008FE99FE00197F1F700C000005A98FF9135
:10021000EF919F918F917F916F910F900FBE0F90F3
:100220001F901895789484B5826084BD84B58160F0
:1002300084BD85B5826085BD85B5816085BD8091B1
:100240006E00816080936E00109281008091810029
:100250008260809381008091810081608093810021
:10026000809180008160809380008091B1008460E3
:100270008093B1008091B00081608093B000809144
:100280007A00846080937A0080917A008260809303
:100290007A0080917A00816080937A0080917A0060
:1002A000806880937A001092C10084E08AB98FE35D
:1002B0008093C4001092C5008EE08093C20088E154
:1002C0008093C10010E405E4C0E0D0E0FF24F39483
:1002D00080914601811144C08EE291E00E94640049
:1002E0002FEF82E597E0215080409040E1F700C079
:1002F000000080912C01812780932C0187E191E0FF
:100300000E9464002FEF82E597E0215080409040EA
:10031000E1F700C000008EE291E00E9464002FEF40
:1003200082E597E0215080409040E1F700C0000056
:100330008EE291E00E9464002FEF82E597E0215069
:1003400080409040E1F700C00000809107018027C5
:100350008093070180E091E00E946400F0924601E2
:10036000209709F4B5CF0E940000B2CF991B79E025
:1003700004C0991F961708F0961B881F7A95C9F735
:0803800080950895F894FFCF69
:100388005061766C79756B204F6C65672049676F93
:10039800726F76796368005061766C79756B204F5F
:1003A8006C65672049676F726F7679636800506182
:1003B800766C79756B204F6C65672049676F726F33
:0603C80076796368000075
:00000001FF
