:100000000C9434000C9446000C9446000C9446006A
:100010000C9446000C9446000C9446000C94460048
:100020000C9446000C9446000C9446000C94460038
:100030000C9446000C9446000C9446000C94460028
:100040000C9452000C9446000C9446000C949C00B6
:100050000C9446000C9446000C9446000C94460008
:100060000C9446000C94460011241FBECFEFD8E03C
:10007000DEBFCDBF21E0A0E0B1E001C01D92A43100
:10008000B207E1F70E94CD000C9497010C94000098
:100090008093BB0084E88093BC008091BC0087FF04
:1000A000FCCF08951F920F920FB60F9211242F9339
:1000B0003F938F939F93AF93BF9380911001909143
:1000C0001101A0911201B091130130910F0123E0B1
:1000D000230F2D3758F50196A11DB11D20930F0157
:1000E0008093100190931101A0931201B09313011A
:1000F00080910B0190910C01A0910D01B0910E0126
:100100000196A11DB11D80930B0190930C01A0934A
:100110000D01B0930E01BF91AF919F918F913F91CF
:100120002F910F900FBE0F901F90189526E8230F68
:100130000296A11DB11DD2CF1F920F920FB60F9242
:1001400011248F939F93EF93FF935A9AE0910001AC
:1001500081E08E0F80930001F0E0EC5FFE4F808124
:100160008093C60080910001843039F48091C100F1
:100170008F7D8093C100109200018FE99FE001976D
:10018000F1F700C000005A98FF91EF919F918F9175
:100190000F900FBE0F901F901895789484B58260D1
:1001A00084BD84B5816084BD85B5826085BD85B51B
:1001B000816085BD80916E00816080936E00109299
:1001C0008100809181008260809381008091810014
:1001D00081608093810080918000816080938000A5
:1001E0008091B10084608093B1008091B000816003
:1001F0008093B00080917A00846080937A0080912F
:100200007A00826080937A0080917A008160809386
:100210007A0080917A00806880937A001092C10001
:1002200084E08AB98FE38093C4001092C5008EE009
:100230008093C20088E18093C10088EF8093B8006A
:100240001092B90087B18F7C87B988B1806388B973
:100250001092BA0014EA04E9A4E8FA2EC0E0D0E053
:10026000BDE2EB2E2FEF51EE84E021505040804054
:10027000E1F700C000001093BC008091BC0087FF34
:10028000FCCF8AE90E94480080E00E944800009369
:10029000BC001093BC008091BC0087FFFCCF8BE9B1
:1002A0000E944800F092BC008091BC0087FFFCCF08
:1002B0002091BB000093BC0020930A0180910901AA
:1002C000821779F1E09204012093050130E0322F8A
:1002D00022278FEF9FEF40E0411102C08227932732
:1002E000BC016627770F661F7727880F991F672B3A
:1002F00021F051E2852750E195274F5F483061F7A3
:10030000909301018093020190930601809307016D
:100310008091C10080628093C10080910A01809326
:100320000901209709F49ECF0E9400009BCFF8940A
:02033000FFCFFD
:00000001FF
