:100000000C9434000C9451000C9451000C94510049
:100010000C9451000C9451000C9451000C9451001C
:100020000C9451000C9451000C9451000C9451000C
:100030000C9451000C9451000C9451000C945100FC
:100040000C945D000C9451000C9451000C94A7008A
:100050000C9451000C9451000C9451000C945100DC
:100060000C9451000C94510011241FBECFEFD8E026
:10007000DEBFCDBF11E0A0E0B1E0E6E6F3E002C0F4
:1000800005900D92A230B107D9F721E0A2E0B1E0CE
:1000900001C01D92A631B207E1F70E94D8000C946E
:1000A000B1010C9400008093BB0084E88093BC00F5
:1000B0008091BC0087FFFCCF08951F920F920FB66E
:1000C0000F9211242F933F938F939F93AF93BF93DE
:1000D0008091120190911301A0911401B09115012A
:1000E0003091110123E0230F2D3758F50196A11D02
:1000F000B11D209311018093120190931301A093DD
:100100001401B093150180910D0190910E01A09101
:100110000F01B09110010196A11DB11D80930D0139
:1001200090930E01A0930F01B0931001BF91AF9176
:100130009F918F913F912F910F900FBE0F901F9025
:10014000189526E8230F0296A11DB11DD2CF1F924C
:100150000F920FB60F9211248F939F93EF93FF93FB
:100160005A9AE091020181E08E0F80930201F0E043
:10017000EA5FFE4F80818093C60080910201843047
:1001800039F48091C1008F7D8093C10010920201EB
:100190008FE99FE00197F1F700C000005A98FF91A6
:1001A000EF919F918F910F900FBE0F901F90189518
:1001B000789484B5826084BD84B5816084BD85B542
:1001C000826085BD85B5816085BD80916E0081604E
:1001D00080936E00109281008091810082608093F4
:1001E00081008091810081608093810080918000F6
:1001F0008160809380008091B10084608093B10021
:100200008091B00081608093B00080917A0084601A
:1002100080937A0080917A00826080937A00809146
:100220007A00816080937A0080917A008068809360
:100230007A001092C10084E08AB98FE38093C400F1
:100240001092C5008EE08093C20088E18093C100C7
:1002500088EF8093B8001092B90087B18F7C87B97E
:1002600088B1806388B91092BA0014EA04E9A4E85E
:10027000FA2EC0E0D0E0B8E1EB2E80910001882397
:1002800059F02FEF59EF80E0215050408040E1F7C6
:1002900000C00000109200019FEF21EE54E0915049
:1002A00020405040E1F700C000001093BC00809156
:1002B000BC0087FFFCCF8AE90E94530080E00E94C7
:1002C00053000093BC001093BC008091BC0087FFDA
:1002D000FCCF8BE90E945300F092BC008091BC00DF
:1002E00087FFFCCF2091BB000093BC0020930C0142
:1002F00080910B01821779F1E092060120930701AA
:1003000030E0322F22278FEF9FEF40E0411102C0F3
:1003100082279327BC016627770F661F7727880FF0
:10032000991F672B21F051E2852750E195274F5FF8
:10033000483061F790930301809304019093080182
:10034000809309018091C10080628093C1008091F7
:100350000C0180930B01209709F48FCF0E940000BD
:060360008CCFF894FFCFE2
:02036600010094
:00000001FF
