:100000000C9424010C9445010C9445010C94450179
:100010000C9445010C9445010C9445010C94450148
:100020000C9445010C9445010C9445010C94450138
:100030000C9445010C9445010C9445010C94450128
:100040000C9445010C9445010C9445010C94450118
:100050000C9445010C9445010C9445010C943D020F
:100060000C9445010C9445010C9445010C944501F8
:100070000C9445010C9445010C9445010C944501E8
:100080000C9445010C9445010C9445010C944501D8
:100090000C9445010C9445010C9445010C944501C8
:1000A0000C9445010C9445010C9445010C944501B8
:1000B0000C9445010C9445010C9445010C944501A8
:1000C0000C9445010C9445010C9445010C94450198
:1000D0000C9445010C9445010C9445010C94450188
:1000E0000C9445010C946F010C9473010C949C01C9
:1000F0000C947A010C9480010C9477010C94A50166
:100100000C9484010C94AA010C9492010C94650146
:100110000C948A010C94A6010C948E010C94A001FD
:100120000C946B010C949801000020002300260021
:1001300029002C002F0032000001000003010601FD
:10014000090100002100240027002A002D003000B2
:10015000330001010000040107010A010000220030
:10016000250028002B002E00310034000201000081
:10017000050108010B010505050507050808080824
:10018000020202020A0A080804040404010101012F
:10019000010101010303030303030303040707072A
:1001A0000C0C0C0C0C0C0C0C0202020206060606CF
:1001B000060606060B0B0B0B0B0B0B0B010210209C
:1001C000200808102040102040800201020108048D
:1001D0000201010204081020408080402010080421
:1001E000020180040201804020100804020108047A
:1001F00002010102040810204080010204081020BE
:10020000408000000A0B02090C0D0E0807030401D0
:1002100000000000000000000000000000000000DE
:1002200000000000000000000000000000001211AB
:1002300010000000000000000000000000000000AE
:10024000000000000000000011241FBECFEFD1E22B
:10025000DEBFCDBF00E00CBF12E0A0E0B2E0EEEFE9
:10026000F6E000E00BBF02C007900D92A031B1078D
:10027000D9F722E0A0E1B2E001C01D92A931B20796
:10028000E1F70E9487020C947D030C9400008150DA
:10029000823108F05AC0E82FF0E08827ED5AFE4F6F
:1002A0008F4F0C9475037301770165016B016F012A
:1002B000A5017A01800184018A018E0192019801D1
:1002C0009C01A501A001A601AA01809180008F7761
:1002D000809380000895809180008F7DF9CF809178
:1002E0008000877FF5CF84B58F7784BD089584B56E
:1002F0008F7DFBCF8091B0008F778093B000089501
:100300008091B0008F7DF9CF809190008F7780939E
:1003100090000895809190008F7DF9CF809190009A
:10032000877FF5CF8091A0008F778093A0000895FC
:100330008091A0008F7DF9CF8091A000877FF5CFBD
:10034000809120018F778093200108958091200172
:100350008F7DF9CF80912001877FF5CF1F93CF93B9
:10036000DF93282F30E0F901EE5FFD4F8491F90112
:10037000E454FE4FD491F901EA58FE4FC491CC23C6
:10038000A9F0162F81110E944701EC2FF0E0EE0F2B
:10039000FF1FE45AFE4FA591B4918FB7F894EC91EA
:1003A000111108C0D095DE23DC938FBFDF91CF9170
:1003B0001F910895DE2BF8CFCF93DF9390E0FC01DF
:1003C000E454FE4F24918A589E4FFC018491882367
:1003D000C9F090E0880F991FFC01EE5BFE4FA591DC
:1003E000B491FC01E45AFE4FC591D49161110DC046
:1003F0009FB7F8948C91209582238C938881282331
:1004000028839FBFDF91CF910895623051F49FB749
:10041000F8943C91822F809583238C93E8812E2B36
:10042000EFCF8FB7F894EC912E2B2C938FBFEACFA0
:100430003FB7F8948091150290911602A09117028F
:10044000B091180226B5A89B05C02F3F19F0019660
:10045000A11DB11D3FBFBA2FA92F982F8827BC011E
:10046000CD01620F711D811D911D42E0660F771F46
:10047000881F991F4A95D1F708951F920F920FB6C2
:100480000F9211242F933F938F939F93AF93BF931A
:100490008091110290911202A0911302B091140266
:1004A0003091100223E0230F2D3758F50196A11D3E
:1004B000B11D209310028093110290931202A09319
:1004C0001302B09314028091150290911602A0912C
:1004D0001702B09118020196A11DB11D809315025B
:1004E00090931602A0931702B0931802BF91AF9198
:1004F0009F918F913F912F910F900FBE0F901F9062
:10050000189526E8230F0296A11DB11DD2CF78942D
:1005100084B5826084BD84B5816084BD85B5826008
:1005200085BD85B5816085BD80916E0081608093B9
:100530006E00109281008091810082608093810022
:100540008091810081608093810080918000816032
:10055000809380008091B10084608093B10080918D
:10056000B00081608093B0008091910082608093A0
:100570009100809191008160809391008091900022
:100580008160809390008091A10082608093A1009F
:100590008091A10081608093A1008091A000816082
:1005A0008093A0008091210182608093210180913D
:1005B00021018160809321018091200181608093DD
:1005C000200180917A00846080937A0080917A0083
:1005D000826080937A0080917A00816080937A00B3
:1005E00080917A00806880937A001092C10000E1C7
:1005F00012E0C0E0D2E08881229661E00E94DC0136
:100600000C171D07C1F760E080E30E94DC0162E087
:1006100080E30E94DC0126EA822E21E0922E30E067
:10062000A32E30E0B32EE2E3F2E08491ECEEF1E0B1
:10063000D491F401C491C11142C000E012E0E8017C
:100640002880229661E0822D0E94AE01F801368456
:1006500061E0832D0E94AE010E9418022B013C0133
:100660008AE5C82ED12CE12CF12C0E9418026419C5
:10067000750986099709683E734081059105A8F3BD
:10068000F1E0CF1AD108E108F10828EE420E23E08C
:10069000521E611C711CC114D104E104F10429F73C
:1006A00060E0822D0E94AE0160E0832D0E94AE01C9
:1006B00002501109F2E0C830DF0711F60FC08111B6
:1006C0000E944701EC2FF0E0EE0FFF1FE85DFE4FA8
:1006D000A591B4918C91D82309F4AFCFA114B104A2
:1006E00009F4A1CF0E9400009ECFEE0FFF1F881FCC
:0E06F0008BBF0790F691E02D1994F894FFCF80
:1006FE0016001700180019001A001B001C001D0020
:00000001FF
