:100000000C9472000C9486000C9486000C9486006C
:100010000C9486000C9486000C9486000C94860048
:100020000C9486000C9486000C9486000C94860038
:100030000C9486000C9486000C9486000C94860028
:100040000C9486000C9486000C9486000C94860018
:100050000C9486000C9486000C9486000C942D0160
:100060000C9486000C9486000C9477010C94860006
:100070000C9486000C9486000C9486000C948600E8
:100080000C9486000C9486000C9486000C948600D8
:100090000C94AD010C9486000C9486000C948600A0
:1000A0000C9486000C9486000C9486000C948600B8
:1000B0000C9486000C9486000C9486000C948600A8
:1000C0000C9486000C9486000C9486000C94860098
:1000D0000C9486000C9486000C9486000C94860088
:1000E0000C94860011241FBECFEFD1E2DEBFCDBF3E
:1000F00000E00CBF22E0A0E0B2E001C01D92AF38EA
:10010000B207E1F70E94D2010C94EE020C940000B9
:10011000FC0190E080E02191222321F001968032C1
:100120009105C9F7089590912302E92FF0E0EC5D65
:10013000FD4F80839F5F9F7190932302E1ECF0E07D
:10014000808180628083089590910002E92FF0E021
:10015000EF5FFD4F80819F5F9F7190930002089534
:10016000EF92FF920F931F93CF93DF938C017B014C
:100170001092440210922302E4E2F2E0119222E093
:10018000E434F207D9F78FEF92E527E081509040F1
:100190002040E1F700C00000809122020E949300FD
:1001A000E801CE01801B910B8E159F0524F48991E7
:1001B0000E949300F6CFDF91CF911F910F91FF9096
:1001C000EF9008950F931F93CF93DF931092000247
:1001D00010922102E1E0F2E0119222E0E132F20716
:1001E000D9F705E612E0F801119282E0E538F80748
:1001F000D9F7C5E4D2E0FE01119292E0E536F907A5
:10020000D9F7EFEFF2E527E0E150F0402040E1F7C9
:1002100000C000000E94A40080932202883161F493
:100220009091000280912102981791F00E94A40001
:10023000F80181938F01F4CF8D3251F49091000237
:1002400080912102981721F00E94A4008993F6CF93
:10025000DF91CF911F910F9108951F920F920FB6CA
:100260000F9211242F933F938F939F93AF93BF933C
:1002700080918B0290918C02A0918D02B0918E02A0
:1002800030918A0223E0230F2D3758F50196A11DE6
:10029000B11D20938A0280938B0290938C02A093CD
:1002A0008D02B0938E028091860290918702A09178
:1002B0008802B09189020196A11DB11D809386022A
:1002C00090938702A0938802B0938902BF91AF9167
:1002D0009F918F913F912F910F900FBE0F901F9084
:1002E000189526E8230F0296A11DB11DD2CF1F92AB
:1002F0000F920FB60F9211240BB60F926F937F934C
:100300008F939F93EF93FF93E091440281E08E0FD0
:1003100080934402F0E0EC5DFD4F80818093C60045
:10032000809144026FE10E94E20290934402809126
:100330002302981305C08091C1008F7D8093C10076
:10034000FF91EF919F918F917F916F910F900BBED5
:100350000F900FBE0F901F9018951F920F920FB61F
:100360000F9211240BB60F928F939F93EF93FF93ED
:10037000E091210281E08E0F809321029091CE00C6
:10038000F0E0EF5FFD4F90838F7180932102FF912A
:10039000EF919F918F910F900BBE0F900FBE0F901A
:1003A0001F901895789484B5826084BD84B581606F
:1003B00084BD85B5826085BD85B5816085BD809130
:1003C0006E00816080936E001092810080918100A8
:1003D00082608093810080918100816080938100A0
:1003E000809180008160809380008091B100846062
:1003F0008093B1008091B00081608093B0008091C3
:10040000910082608093910080919100816080933F
:100410009100809190008160809390008091A10074
:1004200082608093A1008091A10081608093A100EF
:100430008091A00081608093A00080912101826062
:10044000809321018091210181608093210180911D
:10045000200181608093200180917A0084608093E4
:100460007A0080917A00826080937A0080917A008D
:10047000816080937A0080917A00806880937A000E
:100480001092C10082E08AB99FE39093CC00109251
:10049000CD008EE08093CA001092C80028E9209316
:1004A000C9009093C4001092C5008093C2001092BE
:1004B000C00088E18093C100C0E0D0E011E08091ED
:1004C0008502811179C02FEF82E597E021508040AD
:1004D0009040E1F700C000000E94E20085E692E053
:1004E0000E948800BC0185E692E00E94B0000E9454
:1004F000E20085E692E00E948800BC0185E692E079
:100500000E94B0000E94E20085E692E00E9488000E
:10051000BC0185E692E00E94B0000E94E20085E600
:1005200092E00E948800BC0185E692E00E94B00043
:100530000E94E20085E692E00E948800BC0185E608
:1005400092E00E94B0000E94E20085E492E00E94E6
:100550008800BC0185E492E00E94B0000E94E200A5
:1005600085E492E00E948800BC0185E492E00E944C
:10057000B0000E94E20085E492E00E948800BC0185
:1005800085E492E00E94B0000E94E20085E492E0DF
:100590000E948800BC0185E492E00E94B0000E94A5
:1005A000E20085E492E00E948800BC0185E492E0CC
:1005B0000E94B00010938502209709F480CF0E941A
:1005C00000007DCF991B79E004C0991F961708F0B1
:1005D000961B881F7A95C9F780950895F894FFCFE8
:00000001FF
