:020000020000FC
:1000000000C00FEF0DBF01E20EBF0FEF01B90FEF00
:1000100000BB08E00093070108E200930B0160E8D1
:1000200070E881E090E80091090103FF10D0009191
:10003000090105FF11D030FD14D040FD21D07830EA
:10004000C1F0903039F100E000930801ECCF08E0F6
:100050000093080131E0089508E00093080141E0B1
:10006000089550E0572B582B52B97695880F18D029
:10007000089550E052B970E881E030E011D0E1CF4E
:1000800061BB6695669596950BD0983009F00895FA
:1000900060E4089561BB60E890E840E001D0D3CF10
:1000A00020E0232B242720FF20C024EE2093A5004E
:1000B00024E82093A40020E02093A00025E02093D2
:1000C000A10004D0089500E0009308010091090107
:1000D00003FF31E005FF41E029B320FFF7CF21E026
:1000E00029BB20E02093A100089522EF2093A500D2
:0800F00024E42093A400DFCFFB
:00000001FF
