:020000020000FC
:1000000000C00FEF0DBF01E20EBF0FEF01B90FEF00
:1000100000BB08E00093070108E200930B0160E8D1
:1000200070E881E090E80091090103FF10D0009191
:10003000090105FF18D030FD22D040FD2FD07830C7
:1000400031F19030A9F100E000930801ECCF08E015
:100050000093080130FF05C050E052B970E881E01C
:10006000089531E0089508E00093080140FF05C0BD
:1000700000E001BB60E890E8089541E0089550E099
:10008000572B582B52B97695880F19D0089550E008
:1000900052B970E881E030E012D0D3CF61BB6695F1
:1000A000669596950CD0983009F0089560E408950F
:1000B00000E001BB60E890E840E001D0C4CF20E060
:1000C000232B242720FF20C024EE2093A50024E822
:1000D0002093A40020E02093A00025E02093A1001D
:1000E00001D0089529B320FF06C021E029BB20E0FC
:1000F0002093A10008950091090103FFA8DF00915A
:10010000090105FFB0DFEECF22EF2093A50024E424
:060110002093A400DFCFE4
:00000001FF
