:020000020000FC
:100000000FEF0DBF01E20EBF0FEF01B90FEF00BB05
:1000100008E00093070108E200930B0160E870E834
:1000200081E090E80091090103FF05D000910901EA
:1000300005FF11D0F7CF20D050E0572B582B52B9E5
:100040007695880F7830B9F700C016D050E052B9D5
:1000500070E881E0089510D061BB6695669596952D
:10006000983019F09030B9F702C060E4F4CF04D0B2
:1000700061BB60E890E8089534EE3093A50034E861
:100080003093A40030E03093A00035E03093A1001D
:1000900001D0089539B330FFFDCF31E039BB30E0F6
:0600A0003093A100089559
:00000001FF
