:100000000C9435010C9466010C9466010C94660105
:100010000C9466010C9466010C9466010C946601C4
:100020000C9466010C9466010C9466010C946601B4
:100030000C9466010C9466010C9466010C946601A4
:100040000C9466010C9466010C9466010C94660194
:100050000C9466010C9466010C9466010C94ED03FB
:100060000C9466010C9461040C9437040C946601A2
:100070000C9466010C9466010C9466010C94660164
:100080000C9466010C9466010C9466010C94660154
:100090000C9466010C9466010C9466010C94660144
:1000A0000C9466010C9466010C9466010C94660134
:1000B0000C9466010C9466010C9466010C94660124
:1000C0000C9466010C9466010C9466010C94660114
:1000D0000C9466010C9466010C9466010C94660104
:1000E0000C9466010C9486010C94C6010C94E602F3
:1000F0000C94A1010C94B9010C9494010C949B01F3
:100100000C944F030C94A5010C948C010C941703D0
:100110000C94B9020C9409030C94CB010C94AF011C
:100120000C94BD010C94CA050C94AB010C94F5021F
:100130000C94C1010C949C030C9490010C94C70185
:100140000C9498010C94B3010000210024002700B6
:100150002A002D00300033000101000004010701D6
:100160000A0100002200250028002B002E0031008B
:10017000340002010000050108010B01000020000D
:100180002300260029002C002F003200000100006F
:10019000030106010901050505050705080808080A
:1001A000020202020A0A080804040404010101010F
:1001B000010101010303030303030303040707070A
:1001C0000C0C0C0C0C0C0C0C0202020206060606AF
:1001D000060606060B0B0B0B0B0B0B0B010210207C
:1001E000200808102040102040800201020108046D
:1001F0000201010204081020408080402010080401
:100200000201800402018040201008040201080459
:10021000020101020408102040800102040810209D
:10022000408000000A0B02090C0D0E0807030401B0
:1002300000000000000000000000000000000000BE
:10024000000000000000000000000000000012118B
:10025000100000000000000000000000000000008E
:100260000000000000000000CA0511241FBECFEFEF
:10027000D1E2DEBFCDBF00E00CBF12E0A0E0B2E0F3
:10028000E2E0FCE000E00BBF02C007900D92A2325A
:10029000B107D9F722E0A2E2B2E001C01D92A83C6A
:1002A000B207E1F711E0C5E3D1E000E006C0219715
:1002B0000109802FFE010E94F705C433D10780E0B9
:1002C0000807A9F70E9497040C94FF050C940000FE
:1002D0008150823108F05AC0E82FF0E08827EC58AE
:1002E000FE4F8F4F0C94F7059401980186018C0105
:1002F0009001C6019B01A101A501AB01AF01B301B2
:10030000B901BD01C601C101C701CB0180918000C7
:100310008F77809380000895809180008F7DF9CF42
:1003200080918000877FF5CF84B58F7784BD089555
:1003300084B58F7DFBCF8091B0008F778093B00024
:1003400008958091B0008F7DF9CF809190008F77D4
:10035000809390000895809190008F7DF9CF8091D7
:100360009000877FF5CF8091A0008F778093A000C9
:1003700008958091A0008F7DF9CF8091A000877FA4
:10038000F5CF809120018F7780932001089580918F
:1003900020018F7DF9CF80912001877FF5CFCF930A
:1003A000DF93282F30E0F901EE5DFD4F8491F901D4
:1003B000E452FE4FD491F901EA56FE4FC491CC238A
:1003C000A1F081110E946801EC2FF0E0EE0FFF1FF9
:1003D000E458FE4FA591B491EC91ED2381E090E0BB
:1003E00009F480E0DF91CF91089580E090E0FACFAA
:1003F0001F93CF93DF93282F30E0F901EE5DFD4F7F
:100400008491F901E452FE4FD491F901EA56FE4F6E
:10041000C491CC23A9F0162F81110E946801EC2F02
:10042000F0E0EE0FFF1FEE59FE4FA591B4918FB78C
:10043000F894EC91111108C0D095DE23DC938FBFA6
:10044000DF91CF911F910895DE2BF8CFCF93DF93EB
:1004500090E0FC01E452FE4F24918A569E4FFC012D
:1004600084918823C9F090E0880F991FFC01E85B14
:10047000FE4FA591B491FC01EE59FE4FC591D49168
:1004800061110DC09FB7F8948C91209582238C93B5
:100490008881282328839FBFDF91CF910895623000
:1004A00051F49FB7F8943C91822F809583238C93CD
:1004B000E8812E2BEFCF8FB7F894EC912E2B2C9355
:1004C0008FBFEACF3FB7F8948091C4029091C502E4
:1004D000A091C602B091C70226B5A89B05C02F3FC8
:1004E00019F00196A11DB11D3FBFBA2FA92F982F5A
:1004F0008827BC01CD01620F711D811D911D42E055
:10050000660F771F881F991F4A95D1F708958F921C
:100510009F92AF92BF92CF92DF92EF92FF924B01E8
:100520005C010E9462026B017C010E9462026C19F4
:100530007D098E099F09683E734081059105A8F3E6
:1005400021E0821A9108A108B10888EEC80E83E064
:10055000D81EE11CF11C81149104A104B10429F7F7
:10056000FF90EF90DF90CF90BF90AF909F908F90D3
:100570000895AF92BF92CF92DF92EF92FF920F93C6
:100580001F93CF93DF936C017B018B01040F151F29
:10059000EB015E01AE18BF08C017D10759F0699191
:1005A000D601ED91FC910190F081E02DC6011995E5
:1005B000892B79F7C501DF91CF911F910F91FF90A2
:1005C000EF90DF90CF90BF90AF900895FC01538DD6
:1005D000448D252F30E0842F90E0821B930B54171D
:1005E00010F0CF96089501970895FC01918D828DAA
:1005F000981761F0A28DAE0FBF2FB11D5D968C9143
:10060000928D9F5F9F73928F90E008958FEF9FEF81
:100610000895FC01918D828D981731F0828DE80F3D
:10062000F11D858D90E008958FEF9FEF0895FC01F7
:10063000918D228D892F90E0805C9F4F821B9109C4
:100640008F739927089582E292E00E94170321E0B8
:10065000892B09F420E0822F0895FC01A48DA80FB6
:10066000B92FB11DA35ABF4F2C91848D90E00196F4
:100670008F739927848FA689B7892C93A089B18914
:100680008C91837080648C93938D848D981306C0B5
:100690000288F389E02D80818F7D80830895EF9219
:1006A000FF920F931F93CF93DF93EC0181E0888F2C
:1006B0009B8D8C8D98131AC0E889F989808185FFFC
:1006C00015C09FB7F894EE89FF896083E889F9899E
:1006D00080818370806480839FBF81E090E0DF91A0
:1006E000CF911F910F91FF90EF900895F62E0B8DF3
:1006F00010E00F5F1F4F0F731127E02E8C8D8E11AE
:100700000CC00FB607FCFACFE889F989808185FF14
:10071000F5CFCE010E942D03F1CFEB8DEC0FFD2F15
:10072000F11DE35AFF4FF0829FB7F8940B8FEA89CF
:10073000FB8980818062CFCFCF93DF93EC01888DDE
:100740008823B9F0AA89BB89E889F9898C9185FD4C
:1007500003C0808186FD0DC00FB607FCF7CF8C91DA
:1007600085FFF2CF808185FFEDCFCE010E942D0362
:10077000E9CFDF91CF91089580E090E0892B29F0B7
:100780000E94230381110E94000080E090E0892BE9
:1007900049F080E090E0892B29F00E94000081114F
:1007A0000E94000080E090E0892B49F080E090E01A
:1007B000892B29F00E94000081110E94000080E036
:1007C00090E0892B49F080E090E0892B29F00E948D
:1007D000000081110C94000008951F920F920FB633
:1007E0000F9211242F933F938F939F93AF93BF93B7
:1007F0008091C0029091C102A091C202B091C30247
:100800003091BF0223E0230F2D3758F50196A11D2B
:10081000B11D2093BF028093C0029093C102A093A8
:10082000C202B093C3028091C4029091C502A0910C
:10083000C602B091C7020196A11DB11D8093C402EA
:100840009093C502A093C602B093C702BF91AF9127
:100850009F918F913F912F910F900FBE0F901F90FE
:10086000189526E8230F0296A11DB11DD2CF1F9225
:100870000F920FB60F9211240BB60F922F933F9346
:100880004F935F936F937F938F939F93AF93BF9398
:10089000EF93FF9382E292E00E942D03FF91EF918C
:1008A000BF91AF919F918F917F916F915F914F9188
:1008B0003F912F910F900BBE0F900FBE0F901F9086
:1008C00018951F920F920FB60F9211240BB60F922C
:1008D0002F938F939F93EF93FF93E0913202F091C8
:1008E00033028081E0913802F091390282FD1DC00F
:1008F000908180913B028F5F8F7320913C02821721
:1009000041F0E0913B02F0E0EE5DFD4F958F80936A
:100910003B02FF91EF919F918F912F910F900BBE12
:100920000F900FBE0F901F9018958081F2CF789492
:1009300084B5826084BD84B5816084BD85B58260E4
:1009400085BD85B5816085BD80916E008160809395
:100950006E001092810080918100826080938100FE
:10096000809181008160809381008091800081600E
:10097000809380008091B10084608093B100809169
:10098000B00081608093B00080919100826080937C
:1009900091008091910081608093910080919000FE
:1009A0008160809390008091A10082608093A1007B
:1009B0008091A10081608093A1008091A00081605E
:1009C0008093A00080912101826080932101809119
:1009D00021018160809321018091200181608093B9
:1009E000200180917A00846080937A0080917A005F
:1009F000826080937A0080917A00816080937A008F
:100A000080917A00806880937A001092C100E09112
:100A10003202F091330282E08083E0912E02F09165
:100A20002F021082E0913002F09131028FEC80832E
:100A300010923A02E0913602F091370286E080830C
:100A4000E0913402F0913502808180618083E091F1
:100A50003402F0913502808188608083E091340215
:100A6000F0913502808180688083E0913402F091BA
:100A7000350280818F7D808392E1E92E92E0F92E0C
:100A8000E7018881229661E00E94260282E0C2325C
:100A9000D807B9F760E08EE20E94260262E08EE29B
:100AA0000E94260260E08CE20E94260262E08CE254
:100AB0000E9426028AE1C82E82E0D82E82E292E0CD
:100AC0000E941703892B51F182E292E00E94F50205
:100AD000813A910509F045C002E112E0E801A880E1
:100AE000229661E08A2D0E94F801F801B68461E047
:100AF0008B2D0E94F80164E873E080E090E00E9492
:100B0000870260E08A2D0E94F80160E08B2D0E9430
:100B1000F80102501109CC16DD0609F78EE20E9499
:100B2000CF01892B59F461EA82E292E00E944F03DF
:100B300068EC70E080E090E00E9487028CE20E9406
:100B4000CF01892B59F461EB82E292E00E944F03BE
:100B500068EC70E080E090E00E9487020E94BC0395
:100B6000ADCF813B9105D1F6C2E2D2E02297188148
:100B700061E0812F0E94F80164E873E080E090E07A
:100B80000E94870260E0812F0E94F801EC16FD06AA
:100B900069F7C4CFE2E2F2E01382128288EE93E0BA
:100BA000A0E0B0E084839583A683B78384E092E0DD
:100BB0009183808385EC90E09587848784EC90E036
:100BC0009787868780EC90E0918B808B81EC90E01A
:100BD000938B828B82EC90E0958B848B86EC90E0FB
:100BE000978B868B118E128E138E148E0895EE0FB6
:100BF000FF1F881F8BBF0790F691E02D1994F89482
:020C0000FFCF24
:100C0200000000004F03B902E6029C031703F5023D
:100C1200090316001700180019001A001B001C0017
:020C22001D00B3
:00000001FF
