:100000000C943B010C946C010C946C010C946C01ED
:100010000C946C010C946C010C946C010C946C01AC
:100020000C946C010C946C010C946C010C946C019C
:100030000C946C010C946C010C946C010C946C018C
:100040000C946C010C9480050C946C010C946C0164
:100050000C946C010C946C010C946C010C94A7042E
:100060000C946C010C946C010C946C010C946C015C
:100070000C946C010C946C010C946C010C946C014C
:100080000C946C010C946C010C946C010C946C013C
:100090000C946C010C946C010C946C010C946C012C
:1000A0000C946C010C946C010C94F1040C946C0194
:1000B0000C946C010C946C010C946C010C946C010C
:1000C0000C946C010C946C010C946C010C946C01FC
:1000D0000C946C010C946C010C946C010C946C01EC
:1000E0000C946C010C94A9030C9473040C94BF0140
:1000F0000C94FC030C947F030C9426040C94C30111
:100100000C94CC010C9496010C9428030C948D044F
:100110000C94A1010C948C010C94C7010C94B901AE
:100120000C94B1010C94B5010C949E010C94CD017A
:100130000C94A7010C94AB010C94D1010C94920186
:100140000C9469070C944F040C946D040C949A0160
:100150000C94D30300002100240027002A002D0066
:100160003000330001010000040107010A01000012
:100170002200250028002B002E003100340002014F
:100180000000050108010B010000200023002600EB
:1001900029002C002F00320000010000030106019D
:1001A00009010505050507050808080802020202FD
:1001B0000A0A080804040404010101010101010103
:1001C0000303030303030303040707070C0C0C0CCE
:1001D0000C0C0C0C020202020606060606060606B7
:1001E0000B0B0B0B0B0B0B0B010210202008081044
:1001F0002040102040800201020108040201010297
:10020000040810204080804020100804020180046F
:1002100002018040201008040201080402010102CA
:1002200004081020408001020408102040800000D3
:100230000A0B02090C0D0E08070304010000000060
:1002400000000000000000000000000000000000AE
:10025000000000000000000000001211100000006B
:10026000000000000000000000000000000000008E
:1002700000000000690711241FBECFEFD1E2DEBFEE
:10028000CDBF00E00CBF12E0A0E0B2E0E4EAF1E193
:1002900000E00BBF02C007900D92A830B107D9F75C
:1002A00022E0A8E0B2E001C01D92A334B207E1F75A
:1002B00011E0CBE3D1E000E006C021970109802FD7
:1002C000FE010E948F07CA33D10780E00807A9F713
:1002D0000E94C8050C94D0080C9400008150823113
:1002E00008F05AC0E82FF0E08827E658FE4F8F4FFD
:1002F0000C948F079A019E018C0192019601CC010A
:10030000A101A701AB01B101B501B901BF01C30151
:10031000CC01C701CD01D101809180008F778093FE
:1003200080000895809180008F7DF9CF80918000BA
:10033000877FF5CF84B58F7784BD089584B58F7D91
:10034000FBCF8091B0008F778093B00008958091AB
:10035000B0008F7DF9CF809190008F7780939000CF
:100360000895809190008F7DF9CF80919000877FD4
:10037000F5CF8091A0008F778093A00008958091A1
:10038000A0008F7DF9CF8091A000877FF5CF80916D
:1003900020018F77809320010895809120018F7D27
:1003A000F9CF80912001877FF5CFCF93DF93282F5E
:1003B00030E0F901E25DFD4F8491F901E851FE4F13
:1003C000D491F901EE55FE4FC491CC23A1F08111D7
:1003D0000E946E01EC2FF0E0EE0FFF1FE857FE4F7A
:1003E000A591B491EC91ED2381E090E009F480E0D7
:1003F000DF91CF91089580E090E0FACF1F93CF93E3
:10040000DF93282F30E0F901E25DFD4F8491F9017F
:10041000E851FE4FD491F901EE55FE4FC491CC2323
:10042000A9F0162F81110E946E01EC2FF0E0EE0F63
:10043000FF1FE259FE4FA591B4918FB7F894EC914C
:10044000111108C0D095DE23DC938FBFDF91CF91CF
:100450001F910895DE2BF8CFCF93DF9390E0FC013E
:10046000E851FE4F24918E559E4FFC0184918823C4
:10047000C9F090E0880F991FFC01EC5AFE4FA5913E
:10048000B491FC01E259FE4FC591D49161110DC0A8
:100490009FB7F8948C91209582238C938881282390
:1004A00028839FBFDF91CF910895623051F49FB7A9
:1004B000F8943C91822F809583238C93E8812E2B96
:1004C000EFCF8FB7F894EC912E2B2C938FBFEACF00
:1004D0003FB7F89480913B0290913C02A0913D027D
:1004E000B0913E0226B5A89B05C02F3F19F001969A
:1004F000A11DB11D3FBFBA2FA92F982F8827BC017E
:10050000CD01620F711D811D911D42E0660F771FA5
:10051000881F991F4A95D1F708958F929F92AF92A5
:10052000BF92CF92DF92EF92FF924B015C010E944B
:1005300068026B017C010E9468026C197D098E09BA
:100540009F09683E734081059105A8F321E0821A56
:100550009108A108B10888EEC80E83E0D81EE11CFE
:10056000F11C81149104A104B10429F7FF90EF90CC
:10057000DF90CF90BF90AF909F908F9008954F9253
:100580005F926F927F928F929F92AF92BF92CF9223
:10059000DF92EF92FF920F931F93CF93DF9300D0E0
:1005A0001F92CDB7DEB76C0184E2682EF12CE12CEE
:1005B0009AE0592E2AE0822E912CF60121916F01AA
:1005C0002A3008F442C0822F652D0E946F07392F10
:1005D000422F491B550BCA01B4010E947B07698356
:1005E0003A8377247A94760CCE0101965C0110E070
:1005F00000E0F50141905F0161E070E080E090E093
:100600000E948D0260E0E114F10421F4011511054E
:1006100009F46BC0862D801B0E94FE01F9E0F415E1
:1006200008F443C0E42DF0E061E08827E55EFC4F6C
:100630008F4F0C948F0728037F03A903D303FC0378
:1006400026044F046D0473048D0419822A83C9CFD4
:10065000872D801B0E94FE0160E086E10E94FE0162
:1006600060E087E10E94FE0160E088E10E94FE01F7
:1006700060E089E10E94FE0160E08AE10E94FE01E3
:1006800060E08BE10E94FE0161E08CE10E94FE01CE
:100690000130110509F0D8C052E0E516F10409F463
:1006A000D3C060E08DE10E94FE010130110521F50B
:1006B000FFEFEF1AFF0A6A946A944EE164127DCF4D
:1006C0000F900F900F900F90DF91CF911F910F918E
:1006D000FF90EF90DF90CF90BF90AF909F908F9062
:1006E0007F906F905F904F9008958EE10E94FE0181
:1006F00049E0441508F096CF0F5F1F4F7ACF872D42
:10070000801B0E94FE0161E086E10E94FE0160E024
:1007100087E10E94FE0160E088E10E94FE0161E045
:1007200089E10E94FE0161E08AE10E94FE0161E030
:100730008BE10E94FE0161E08CE10E94FE0101302C
:10074000110509F081C082E0E816F10409F0A9CF93
:100750007BC0872D801B0E94FE0160E086E10E9425
:10076000FE0160E087E10E94FE0161E088E10E94F5
:10077000FE0160E089E10E94FE0160E08AE10E94E2
:10078000FE0161E08BE10E94FE0160E08CE10E94CD
:10079000FE010130110509F057C092E0E916F1049D
:1007A00009F07FCF51C0872D801B0E94FE0160E0C1
:1007B00086E10E94FE0160E087E10E94FE0160E0A8
:1007C00088E10E94FE0160E089E10E94FE0161E093
:1007D0008AE10E94FE0161E08BE10E94FE0160E07F
:1007E0008CE10E94FE010130110571F5E2E0EE1688
:1007F000F10409F056CF28C0872D801B0E94FE010E
:1008000061E086E10E94FE0160E087E10E94FE0156
:1008100060E088E10E94FE0161E089E10E94FE0142
:1008200061E08AE10E94FE0160E08BE10E94FE012E
:1008300060E08CE10E94FE010130110529F4F2E034
:10084000EF16F10409F02DCF61E02CCF872D801B2E
:100850000E94FE0160E086E10E94FE0161E087E106
:100860000E94FE0160E088E10E94FE0160E089E1F3
:100870000E94FE0161E08AE10E94FE0160E08BE1DE
:100880000E94FE0160E08CE10E94FE010130110532
:10089000D9F642E0E416F10409F003CFD5CF872D55
:1008A000801B0E94FE0160E086E10E94FE0161E083
:1008B00087E10E94FE0160E088E10E94FE0160E0A5
:1008C00089E10E94FE0160E08AE10E94FE0160E091
:1008D0008BE10E94FE0160E0D8CE872D801B0E9434
:1008E000FE0160E011CF872D801B0E94FE0160E0B9
:1008F00086E10E94FE0160E087E10E94FE0160E067
:1009000088E10E94FE0160E089E10E94FE0160E052
:100910008AE10E94FE0160E035CF872D801B0E9496
:10092000FE0160E086E10E94FE0160E087E10E9436
:10093000FE0160E088E10E94FE0160E089E10E9422
:10094000FE0161E08AE10E94FE0160E045CF1F9256
:100950000F920FB60F9211242F933F938F939F9373
:10096000AF93BF938091370290913802A0913902E2
:10097000B0913A023091360223E0230F2D3758F51B
:100980000196A11DB11D20933602809337029093EA
:100990003802A0933902B0933A0280913B029091C1
:1009A0003C02A0913D02B0913E020196A11DB11DF5
:1009B00080933B0290933C02A0933D02B0933E0291
:1009C000BF91AF919F918F913F912F910F900FBE4B
:1009D0000F901F90189526E8230F0296A11DB11DB8
:1009E000D2CF1F920F920FB60F9211240BB60F9217
:1009F0002F933F934F935F936F937F938F939F9327
:100A0000AF93BF93CF93EF93FF9380913502811102
:100A100024C08091340280930C0280913302809331
:100A20000D028091320280930E028CE092E00E94CF
:100A3000BF02FF91EF91CF91BF91AF919F918F91A5
:100A40007F916F915F914F913F912F910F900BBECE
:100A50000F900FBE0F901F90189580913102C3E246
:100A60008823E1F090E020912F0230913002281786
:100A70003907FCF20197FC01EE0FFF1FE80FF91F89
:100A8000EF5EFD4F8281809308028181809309028D
:100A9000808180930A0288E092E0C9CF61E070E033
:100AA00080E090E00E948D0261E08C2F0E94FE01A8
:100AB00061E086E10E94FE0161E087E10E94FE01A3
:100AC00061E088E10E94FE0161E089E10E94FE018F
:100AD00061E08AE10E94FE0161E08BE10E94FE017B
:100AE00061E08CE10E94FE0161E08DE10E94FE0167
:100AF00060E08C2F0E94FE01C150CD3179F699CF74
:100B00001F920F920FB60F9211242F933F938F9342
:100B100080910002811107C0809132028F5F8C3377
:100B2000E9F08093320280913502882379F0809138
:100B300031028F5F8093310220912F023091300279
:100B40008217130619F014F0109231028F913F9121
:100B50002F910F900FBE0F901F9018951092320298
:100B600081E080931002809133028F5F8C3319F003
:100B700080933302D8CF10923302809134028F5F7A
:100B8000883119F080933402CECF10923402CBCF4B
:100B9000789484B5826084BD84B5816084BD85B558
:100BA000826085BD85B5816085BD80916E00816064
:100BB00080936E001092810080918100826080930A
:100BC000810080918100816080938100809180000C
:100BD0008160809380008091B10084608093B10037
:100BE0008091B00081608093B0008091910082601C
:100BF0008093910080919100816080939100809119
:100C000090008160809390008091A1008260809329
:100C1000A1008091A10081608093A1008091A0003B
:100C200081608093A00080912101826080932101E6
:100C30008091210181608093210180912001816058
:100C40008093200180917A00846080937A00809163
:100C50007A00826080937A0080917A00816080932C
:100C60007A0080917A00806880937A001092C100A7
:100C7000109280008DE08093810010928500109288
:100C8000840082E080936F0028E03DE33093890088
:100C9000209388001092A0009CE09093A1001092F5
:100CA000A5001092A4008093720080E792E09093D8
:100CB000A9008093A80061E086E10E942C0261E017
:100CC00087E10E942C0261E088E10E942C0261E031
:100CD00089E10E942C0261E08AE10E942C0261E01D
:100CE0008BE10E942C0261E08CE10E942C0261E009
:100CF0008DE10E942C0261E083E20E942C0261E0FF
:100D000082E20E942C0261E081E20E942C0261E0FA
:100D100080E20E942C0261E08FE10E942C0261E0DF
:100D20008EE10E942C0260E085E30E942C0260E0CC
:100D300084E30E942C0260E083E30E942C0260E0C6
:100D400082E30E942C0262E085E30E942C0262E0B2
:100D500084E30E942C0262E083E30E942C0262E0A2
:100D600082E30E942C0261E080E40E942C0201E0F8
:100D700051E2F52EC0E0D0E0EE24E39485E30E943A
:100D8000D501892B19F580913502811154C010913C
:100D900000021F5F1093000264E670E080E090E0C4
:100DA0000E948D02123069F41092340210923302C4
:100DB0001092320264E670E080E090E00E948D02C2
:100DC0003AC01330C1F510920002F4CF84E30E94C0
:100DD000D501892B09F049C08091350281112BC0C2
:100DE00080912F02909130028A309105B4F42091C5
:100DF000340230913302FC01EE0FFF1FE80FF91FA0
:100E0000EF5EFD4F40913202408331832283019691
:100E10009093300280932F02CDCF61E080E40E9456
:100E2000FE0168EE73E080E090E00E948D0260E0D9
:100E300080E40E94FE0180911002882381F061E02D
:100E400080E40E94FE0164EF71E080E090E00E9487
:100E50008D0260E080E40E94FE0110921002209753
:100E600009F48CCF0E94000089CF83E30E94D50152
:100E7000892B81F4809135028111DDCF81E192E0EF
:100E80000E944708E1E1F2E0DF018F2D1D928A9573
:100E9000E9F7D1CF82E30E94D501892B61F68091D9
:100EA0000002882341F28091350280278093350229
:100EB00064E670E080E090E00E948D0210923102C2
:100EC00064E670E080E090E00E948D02E092000213
:100ED00071CFE1E1F2E0178E168E10A20895991BF2
:100EE00079E004C0991F961708F0961B881F7A9521
:100EF000C9F78095089597FB072E16F4009407D044
:100F000077FD09D00E94970707FC05D03EF4909525
:100F100081959F4F0895709561957F4F0895EE0FCD
:100F2000FF1F881F8BBF0790F691E02D1994AA1B15
:100F3000BB1B51E107C0AA1FBB1FA617B70710F0C4
:100F4000A61BB70B881F991F5A95A9F780959095F6
:100F5000BC01CD0108950F931F93CF93DF9382308F
:100F6000910510F482E090E0E0914102F09142029C
:100F700030E020E0B0E0A0E0309799F42115310591
:100F800009F44AC0281B390B24303105D8F58A8171
:100F90009B816115710589F1FB0193838283FE01B9
:100FA00011C0408151810281138148175907E0F037
:100FB0004817590799F4109761F012960C931297FD
:100FC00013961C933296CF01DF91CF911F910F9111
:100FD00008950093410210934202F4CF2115310588
:100FE00051F04217530738F0A901DB019A01BD0106
:100FF000DF01F801C1CFEF01F9CF90934202809356
:101000004102CDCFFE01E20FF31F81939193225055
:10101000310939832883D7CF20913F023091400294
:10102000232B41F4209103023091040230934002BB
:1010300020933F02209101023091020221153105D7
:1010400041F42DB73EB74091050250910602241B92
:10105000350BE0913F02F0914002E217F307A0F454
:101060002E1B3F0B2817390778F0AC014E5F5F4FFE
:101070002417350748F04E0F5F1F509340024093EE
:101080003F02819391939FCFF0E0E0E09CCFCF931C
:10109000DF930097E9F0FC01329713821282A0914E
:1010A0004102B0914202ED0130E020E01097A1F43E
:1010B00020813181820F931F20913F0230914002A5
:1010C0002817390709F061C0F0934002E0933F020E
:1010D000DF91CF910895EA01CE17DF07E8F54A8145
:1010E0005B819E0141155105B1F7E901FB83EA835C
:1010F00049915991C40FD51FEC17FD0761F4808108
:1011000091810296840F951FE901998388838281DA
:1011100093819B838A83F0E0E0E012968D919C910D
:1011200013970097B9F52D913C911197CD01029637
:10113000820F931F20913F023091400228173907F8
:1011400039F6309751F51092420210924102B09355
:101150004002A0933F02BCCFD383C2834081518120
:10116000840F951FC817D90761F44E5F5F4F8881C0
:101170009981480F591F518340838A819B819383B2
:1011800082832115310509F0B0CFF0934202E0933C
:1011900041029ECFFD01DC01C0CF13821282D7CF66
:0411A000F894FFCFF1
:0811A40001000043028000007D
:00000001FF
